{
  "contractName": "Betting",
  "abi": [
    {
      "inputs": [],
      "payable": false,
      "stateMutability": "nonpayable",
      "type": "constructor"
    },
    {
      "constant": true,
      "inputs": [],
      "name": "admin",
      "outputs": [
        {
          "internalType": "address payable",
          "name": "",
          "type": "address"
        }
      ],
      "payable": false,
      "stateMutability": "view",
      "type": "function"
    },
    {
      "constant": true,
      "inputs": [
        {
          "internalType": "uint256",
          "name": "",
          "type": "uint256"
        }
      ],
      "name": "bet",
      "outputs": [
        {
          "internalType": "uint256",
          "name": "",
          "type": "uint256"
        }
      ],
      "payable": false,
      "stateMutability": "view",
      "type": "function"
    },
    {
      "constant": true,
      "inputs": [
        {
          "internalType": "uint256",
          "name": "",
          "type": "uint256"
        }
      ],
      "name": "players",
      "outputs": [
        {
          "internalType": "address payable",
          "name": "",
          "type": "address"
        }
      ],
      "payable": false,
      "stateMutability": "view",
      "type": "function"
    },
    {
      "constant": false,
      "inputs": [],
      "name": "receive",
      "outputs": [],
      "payable": true,
      "stateMutability": "payable",
      "type": "function"
    },
    {
      "constant": false,
      "inputs": [
        {
          "internalType": "uint256",
          "name": "num",
          "type": "uint256"
        }
      ],
      "name": "addData",
      "outputs": [],
      "payable": false,
      "stateMutability": "nonpayable",
      "type": "function"
    },
    {
      "constant": true,
      "inputs": [],
      "name": "getBet",
      "outputs": [
        {
          "internalType": "uint256[]",
          "name": "",
          "type": "uint256[]"
        }
      ],
      "payable": false,
      "stateMutability": "view",
      "type": "function"
    },
    {
      "constant": true,
      "inputs": [],
      "name": "getBalance",
      "outputs": [
        {
          "internalType": "uint256",
          "name": "",
          "type": "uint256"
        }
      ],
      "payable": false,
      "stateMutability": "view",
      "type": "function"
    },
    {
      "constant": false,
      "inputs": [],
      "name": "pickWinner",
      "outputs": [],
      "payable": false,
      "stateMutability": "nonpayable",
      "type": "function"
    }
  ],
  "bytecode": "0x608060405234801561001057600080fd5b5033600160006101000a81548173ffffffffffffffffffffffffffffffffffffffff021916908373ffffffffffffffffffffffffffffffffffffffff160217905550610afa806100616000396000f3fe60806040526004361061007b5760003560e01c8063a3e76c0f1161004e578063a3e76c0f1461017d578063e5d824a714610187578063f71d96cb146101c2578063f851a4401461023d5761007b565b806312065fe01461008057806320835e8c146100ab5780635d495aea146101175780637365870b1461012e575b600080fd5b34801561008c57600080fd5b50610095610294565b6040518082815260200191505060405180910390f35b3480156100b757600080fd5b506100c061035f565b6040518080602001828103825283818151815260200191508051906020019060200280838360005b838110156101035780820151818401526020810190506100e8565b505050509050019250505060405180910390f35b34801561012357600080fd5b5061012c6103b7565b005b34801561013a57600080fd5b506101676004803603602081101561015157600080fd5b810190808035906020019092919050505061063e565b6040518082815260200191505060405180910390f35b61018561065f565b005b34801561019357600080fd5b506101c0600480360360208110156101aa57600080fd5b81019080803590602001909291905050506107eb565b005b3480156101ce57600080fd5b506101fb600480360360208110156101e557600080fd5b810190808035906020019092919050505061096e565b604051808273ffffffffffffffffffffffffffffffffffffffff1673ffffffffffffffffffffffffffffffffffffffff16815260200191505060405180910390f35b34801561024957600080fd5b506102526109aa565b604051808273ffffffffffffffffffffffffffffffffffffffff1673ffffffffffffffffffffffffffffffffffffffff16815260200191505060405180910390f35b60003373ffffffffffffffffffffffffffffffffffffffff16600160009054906101000a900473ffffffffffffffffffffffffffffffffffffffff1673ffffffffffffffffffffffffffffffffffffffff1614610359576040517f08c379a00000000000000000000000000000000000000000000000000000000081526004018080602001828103825260158152602001807f596f7520617265206e6f7420746865206f776e6572000000000000000000000081525060200191505060405180910390fd5b47905090565b606060028054806020026020016040519081016040528092919081815260200182805480156103ad57602002820191906000526020600020905b815481526020019060010190808311610399575b5050505050905090565b3373ffffffffffffffffffffffffffffffffffffffff16600160009054906101000a900473ffffffffffffffffffffffffffffffffffffffff1673ffffffffffffffffffffffffffffffffffffffff161461047a576040517f08c379a00000000000000000000000000000000000000000000000000000000081526004018080602001828103825260158152602001807f596f7520617265206e6f7420746865206f776e6572000000000000000000000081525060200191505060405180910390fd5b600360008054905010156104d9576040517f08c379a0000000000000000000000000000000000000000000000000000000008152600401808060200182810382526041815260200180610a856041913960600191505060405180910390fd5b6000806104e46109d0565b90506000809050600090505b60008054905081101561052e576002818154811061050a57fe5b90600052602060002001548214156105215761052e565b80806001019150506104f0565b6000805490508110156105c8576000818154811061054857fe5b9060005260206000200160009054906101000a900473ffffffffffffffffffffffffffffffffffffffff1692508273ffffffffffffffffffffffffffffffffffffffff166108fc610597610294565b9081150290604051600060405180830381858888f193505050501580156105c2573d6000803e3d6000fd5b50610639565b600160009054906101000a900473ffffffffffffffffffffffffffffffffffffffff1673ffffffffffffffffffffffffffffffffffffffff166108fc61060c610294565b9081150290604051600060405180830381858888f19350505050158015610637573d6000803e3d6000fd5b505b505050565b6002818154811061064b57fe5b906000526020600020016000915090505481565b670de0b6b3a764000034146106dc576040517f08c379a00000000000000000000000000000000000000000000000000000000081526004018080602001828103825260188152602001807f4d7573742073656e64203120657468657220616d6f756e74000000000000000081525060200191505060405180910390fd5b600160009054906101000a900473ffffffffffffffffffffffffffffffffffffffff1673ffffffffffffffffffffffffffffffffffffffff163373ffffffffffffffffffffffffffffffffffffffff161415610783576040517f08c379a0000000000000000000000000000000000000000000000000000000008152600401808060200182810382526024815260200180610a346024913960400191505060405180910390fd5b60003390806001815401808255809150509060018203906000526020600020016000909192909190916101000a81548173ffffffffffffffffffffffffffffffffffffffff021916908373ffffffffffffffffffffffffffffffffffffffff16021790555050565b6001811015610862576040517f08c379a000000000000000000000000000000000000000000000000000000000815260040180806020018281038252601a8152602001807f416363657074206f6e6c792076616c7565732061626f7665203100000000000081525060200191505060405180910390fd5b60068111156108d9576040517f08c379a000000000000000000000000000000000000000000000000000000000815260040180806020018281038252601a8152602001807f416363657074206f6e6c792076616c7565732062656c6f77203600000000000081525060200191505060405180910390fd5b600160008054905003600280549050111561093f576040517f08c379a000000000000000000000000000000000000000000000000000000000815260040180806020018281038252602d815260200180610a58602d913960400191505060405180910390fd5b600281908060018154018082558091505090600182039060005260206000200160009091929091909150555050565b6000818154811061097b57fe5b906000526020600020016000915054906101000a900473ffffffffffffffffffffffffffffffffffffffff1681565b600160009054906101000a900473ffffffffffffffffffffffffffffffffffffffff1681565b600080600644426000805490506040516020018084815260200183815260200182815260200193505050506040516020818303038152906040528051906020012060001c81610a1b57fe5b0690506000811415610a2c57600190505b809150509056fe41646d696e2063616e6e6f7420706172746963697061746520696e207468652047616d654561636820706c617965722063616e2067697665206f6e6c79206f6e65206e756d6265722061732061206265744d696e696d756d203320706c61796572732061726520726571756972656420746f20706172746963697061746520746f20636f6e64756374207468652047616d65a265627a7a723158209f9aa45415186645be97c068f6c48505e50358bd77c0ca36047b162a4510dcc564736f6c63430005100032",
  "source": "// SPDX-License-Identifier: MIT\r\npragma solidity >=0.5.0;\r\n\r\ncontract Betting {\r\n    address payable[] public players;\r\n    address payable public admin;\r\n    uint[] public bet;\r\n\r\n    constructor() public{\r\n        admin = msg.sender;\r\n    }\r\n\r\n    modifier onlyOwner() {\r\n        require(admin == msg.sender, \"You are not the owner\");\r\n        _;\r\n    }\r\n\r\n    function receive() external payable {\r\n        require(msg.value == 1 ether , \"Must send 1 ether amount\");\r\n        \r\n        require(msg.sender != admin, \"Admin cannot participate in the Game\");\r\n        \r\n        players.push(msg.sender);    \r\n    }\r\n    \r\n    function addData(uint num) public{\r\n        require(num >= 1, 'Accept only values above 1');\r\n        require(num <= 6, 'Accept only values below 6');\r\n        require(bet.length <= players.length-1, \"Each player can give only one number as a bet\");\r\n        bet.push(num);\r\n    }\r\n\r\n    function getBet() public view returns(uint[] memory){\r\n        return bet;\r\n    }\r\n\r\n    function getBalance() public view onlyOwner returns(uint){\r\n        return address(this).balance;\r\n    }\r\n\r\n    function random() internal view returns(uint){\r\n        uint res = uint(keccak256(abi.encodePacked(block.difficulty, block.timestamp, players.length))) % 6;\r\n        if(res == 0){\r\n             res = 1;\r\n        }\r\n       return res;\r\n    }\r\n\r\n    function pickWinner() public onlyOwner {\r\n\r\n        require(players.length >= 3 , \"Minimum 3 players are required to participate to conduct the Game\");\r\n        \r\n        address payable winner;\r\n        uint randNum = random();\r\n        uint i=0;\r\n        for(i=0; i<players.length; i++){\r\n            if(randNum == bet[i]){\r\n                break;\r\n            }\r\n        }\r\n        \r\n        if(i < players.length){\r\n            winner = players[i];\r\n            winner.transfer(getBalance());\r\n        }else{\r\n            admin.transfer(getBalance());\r\n        }\r\n        \r\n    }\r\n    \r\n}",
  "sourcePath": "C:/Users/Ashritha/Desktop/blockchain_game-master/blockchain_game-master/src/contracts/Betting.sol",
  "compiler": {
    "name": "solc",
    "version": "0.5.16+commit.9c3226ce.Emscripten.clang"
  },
  "schemaVersion": "3.2.3",
  "updatedAt": "2022-04-17T10:15:24.727Z",
  "devdoc": {
    "methods": {}
  },
  "userdoc": {
    "methods": {}
  }
}